:100000000C9463000C948B000C948B000C948B006C
:100010000C948B000C948B000C948B000C948D0032
:100020000C948B000C948B000C948B000C94320C71
:100030000C948B000C948B000C948B000C948B0014
:100040000C94F60D0C948B000C942B110C945D11F8
:100050000C948B000C948B000C948B000C948B00F4
:100060000C948B000C948B0000000008000201002F
:100070000003040700000000000000000102040863
:100080001020408001020408102001020408102002
:10009000040404040404040402020202020203032E
:1000A00003030303000000002300260029000000D2
:1000B0000000250028002B0000000000240027007D
:1000C0002A00150D8D1111241FBECFEFD8E0DEBF21
:1000D000CDBF11E0A0E0B1E0E8EDFAE202C005908A
:1000E0000D92A634B107D9F722E0A6E4B1E001C031
:1000F0001D92A53FB207E1F710E0C6ECD0E004C0C6
:100100002297FE010E945715C23CD107C9F70E94F1
:10011000D1110C946A150C9400001F920F920FB627
:100120000F9211242F933F934F935F936F937F937D
:100130008F939F93AF93BF93EF93FF93809147016A
:100140000E94BD0F20914A0130914B012F5F3F4F1C
:1001500030934B0120934A0190914901953618F054
:1001600096E090934601909146019430C9F128F4AD
:10017000923069F09330D1F05EC0953009F451C0EF
:10018000963009F058C091E09093160251C0811149
:1001900052C020914A0130914B012436310508F4B8
:1001A00042C010921602109249011CC0813009F021
:1001B00042C0E091490191E09E0F90934901F0E027
:1001C00020914A0130914B01EE0FFF1FE45BFE4F7F
:1001D0003183208310924B0110924A0194E029C090
:1001E000811117C0E091490191E09E0F9093490160
:1001F000F0E020914A0130914B01EE0FFF1FE45BCC
:10020000FE4F3183208310924B0110924A0193E0FC
:1002100010C020914A0130914B012536310558F02C
:1002200007C0811108C010924B0110924A0103C00F
:1002300095E09093460190914801992329F081110E
:1002400002C02D9A01C02D98FF91EF91BF91AF91FF
:100250009F918F917F916F915F914F913F912F91DE
:100260000F900FBE0F901F9018956093470110924A
:1002700048010895F89482E08093B0008093B10023
:1002800094E69093B3001092B2008093700078943B
:1002900080934601109249018091470160E00C94DF
:1002A0004E0F82E0809346011092490108958F928B
:1002B0009F92AF92BF92CF92DF92EF92FF927B011B
:1002C000BA0180E090E00E94A4134B015C01B701E9
:1002D00080E090E00E94A4136B017C012DEC3CECCB
:1002E0004CE45FE30E9456149B01AC01C501B401CC
:1002F0000E94071387FD17C02DEC3CEC4CE45FE334
:10030000C501B4010E9456149B01AC01C701B6019E
:100310000E940713992787FD90958827990F881FBA
:100320009927019602C080E090E0FF90EF90DF9067
:10033000CF90BF90AF909F908F9008958F929F9293
:10034000AF92BF92CF92DF92EF92FF920F931F93E3
:10035000CF93DF936C01EB01EC84FD8486E0E8161B
:10036000F1040CF444C0EE0CFF1C06E010E045EC78
:10037000842E4DE9942E4CE1A42E41E8B42E8A85BA
:100380009B85FC01E00FF11F40815181F8013497FA
:10039000E80FF91F60817181C6010E945701FC01BD
:1003A000A501940163E971E080E091E00E94B91435
:1003B0004F01AA2497FCA094BA2C86269726A8263B
:1003C000B9260E5F1F4F0E151F05C9F68C829D8240
:1003D000AE82BF8280E290E0998788878FEF9FEF9F
:1003E0009983888361E070E080E090E003C060E082
:1003F00070E0CB01DF91CF911F910F91FF90EF90B3
:10040000DF90CF90BF90AF909F908F9008950F9303
:100410001F93CF93DF938C01EB018CE491E09B87DA
:100420008A878091490190E09D878C878091160290
:1004300090E09F878E8780914601853009F05EC0ED
:10044000C8010E943C06882319F081E090E058C062
:10045000BE01C8010E94F50A8111F7CFBE01C80193
:100460000E94510A8111F1CFBE01C8010E94AD0561
:100470008111EBCFBE01C8010E9413088111E5CFA5
:10048000BE01C8010E94BA088111DFCFBE01C801B8
:100490000E94DB068111D9CFBE01C8010E94200550
:1004A0008111D3CFBE01C8010E9467048111CDCF55
:1004B000BE01C8010E94B2098111C7CFBE01C801A7
:1004C0000E94900B8111C1CFBE01C8010E945B0345
:1004D0008111BBCFBE01C8010E94EC038111B5CFD1
:1004E000BE01C8010E949E01672B682B692B09F091
:1004F000ACCF82E0809346011092490180E090E009
:10050000DF91CF911F910F910895CF92DF92EF92DB
:10051000FF92CF93DF93EC01882777FD8095982F8A
:100520000E94A6136B017C0120E030E040E45FE311
:100530000E94561420E030E048E452E40E940B137D
:100540000E947313C617D707ECF020E030E040EAB2
:100550005FE3C701B6010E94561420E030E048E492
:1005600052E40E940B1320E030E040E85FE30E9479
:10057000A3120E94731321E06C177D070CF420E096
:10058000822F01C080E090E0DF91CF91FF90EF904B
:10059000DF90CF900895CF92DF92EF92FF92CF93AA
:1005A000DF93EC016C597F4F882777FD8095982F5A
:1005B0000E94A6136B017C0120E030E040E45FE381
:1005C0000E94561420E030E048E452E40E940B13ED
:1005D0000E947313C617D707ECF020E030E040EA22
:1005E0005FE3C701B6010E94561420E030E048E402
:1005F00052E40E940B1320E030E040E85FE30E94E9
:10060000A3120E94731321E06C177D070CF420E005
:10061000822F01C080E090E0DF91CF91FF90EF90BA
:10062000DF90CF900895CF92DF92EF92FF92CF9319
:10063000DF93EC0164567109882777FD8095982F28
:100640000E94A6136B017C0120E030E040E45FE3F0
:100650000E94561420E030E048E452E40E940B135C
:100660000E947313C617D707ECF020E030E040EA91
:100670005FE3C701B6010E94561420E030E048E471
:1006800052E40E940B1320E030E040E85FE30E9458
:10069000A3120E94731321E06C177D070CF420E075
:1006A000822F01C080E090E0DF91CF91FF90EF902A
:1006B000DF90CF900895AF92BF92CF92DF92EF92EA
:1006C000FF920F931F93CF93DF93EB01809149012A
:1006D000883510F480E075C0EA85FB8582819381BE
:1006E00060E672E20E94CB02892BA1F3EA85FB85CA
:1006F0008481958164E971E10E941303892B51F390
:10070000BEE1CB2ED12C1DE1E12EF12C00E010E05A
:100710008091490190E00497E816F906C4F5EA854E
:10072000FB85C701880F991FE80FF91F8081918110
:1007300064EF71E00E94CB02892B61F25601AA0C92
:10074000BB1CEA85FB85EA0DFB1D8081918168E574
:1007500072E00E941303892B21F0000F111F01602A
:100760000EC0EA85FB85EA0DFB1D8081918164EA5C
:1007700076E00E941303892B49F0000F111F82E0DD
:10078000E80EF11C82E0C80ED11CC2CF760181E0D8
:10079000E81AF108F594E794F986E8868AE2E81603
:1007A000F1040CF497CFC801AA2797FDA095BA2FA2
:1007B0008C839D83AE83BF8389E090E09983888397
:1007C00081E0DF91CF911F910F91FF90EF90DF902B
:1007D000CF90BF90AF900895AF92BF92CF92DF922B
:1007E000EF92FF920F931F93CF93DF93EB018091D2
:1007F0004901803211F080E05FC0EA85FB8582818B
:1008000093816CE271E00E94CB02892BA1F3EA850F
:10081000FB85848195816EEE72E00E941303892B23
:1008200051F306E010E0C12CD12C7601EA85FB855E
:10083000E00FF11F808191816CE271E00E94CB0298
:10084000892BC9F2580182E0A80EB11CEA85FB850C
:10085000EA0DFB1D8081918168E077E00E9413031F
:10086000892B39F0CC0CDD1CEE1CFF1C6894C0F801
:1008700011C0EA85FB85EA0DFB1D808191816EEE3A
:1008800072E00E941303892B09F4B5CFCC0CDD1C58
:10089000EE1CFF1C0C5F1F4F0E33110539F68EE066
:1008A00090E099878887CC82DD82EE82FF828FE09C
:1008B00090E09983888381E0DF91CF911F910F9120
:1008C000FF90EF90DF90CF90BF90AF900895AF92E0
:1008D000BF92CF92DF92EF92FF920F931F93CF932D
:1008E000DF93EB0180914901823261F5EA85FB8556
:1008F0008281938168E572E00E94CB02892B11F11D
:100900008091490190E081509048880F991FEA85B5
:10091000FB85E80FF91F8081918168E572E00E94F4
:10092000CB02892B79F0198618868FEF9FEFDC01B7
:100930008C839D83AE83BF8386E090E09983888318
:1009400081E073C0EA85FB858281938160E47FE169
:100950000E94CB02892B21F080914901813210F451
:1009600080E063C0EA85FB858481958160EA7FE051
:100970000E941303892BA1F358E0A52EB12C03E0AC
:1009800010E0C12CD12C7601EA85FB85C801880FC7
:10099000991FE80FF91F8081918168E572E00E943C
:1009A000CB02892BE9F2EA85FB85EA0DFB1D8081EC
:1009B000918160E476E00E941303892B39F0CC0C1E
:1009C000DD1CEE1CFF1C6894C0F811C0EA85FB8595
:1009D000EA0DFB1D8081918166E272E00E941303A3
:1009E000892B09F4BDCFCC0CDD1CEE1CFF1C0E5F67
:1009F0001F4F84E0A80EB11C0332110529F6EA85C9
:100A0000FB85EA5BFF4F8081918168E572E00E947F
:100A1000CB02892B09F4A4CF80E190E099878887E5
:100A2000CC82DD82EE82FF8287CFDF91CF911F9152
:100A30000F91FF90EF90DF90CF90BF90AF9008950F
:100A4000AF92BF92CF92DF92EF92FF920F931F93DC
:100A5000CF93DF93EB0180914901893310F480E05B
:100A600071C0EA85FB858281938160E47FE10E9409
:100A7000CB02892BA1F3EA85FB858481958160EA0D
:100A80007FE00E941303892B51F338E0A32EB12C91
:100A900003E010E0C12CD12C7601EA85FB85C8016A
:100AA000880F991FE80FF91F8081918168E572E036
:100AB0000E94CB02892B99F2EA85FB85EA0DFB1D8A
:100AC0008081918160E476E00E941303892B39F0E4
:100AD000CC0CDD1CEE1CFF1C6894C0F811C0EA852C
:100AE000FB85EA0DFB1D8081918166E272E00E9428
:100AF0001303892B09F4B3CFCC0CDD1CEE1CFF1CB7
:100B00000E5F1F4F84E0A80EB11C0B33110529F6B0
:100B1000EA85FB85EA58FF4F8081918168E572E0A4
:100B20000E94CB02892B09F49ACF8CE190E099873F
:100B30008887CC82DD82EE82FF828AE090E0998312
:100B4000888381E0DF91CF911F910F91FF90EF900B
:100B5000DF90CF90BF90AF9008956F927F928F9269
:100B60009F92AF92BF92CF92DF92EF92FF920F933C
:100B70001F93CF93DF93EB0180914901823208F4F8
:100B800061C0EA85FB85828193816EE571E00E94F8
:100B9000CB02892B09F456C063E0A62EB12C02E0EB
:100BA00010E0C12CD12C760135018091490190E0F3
:100BB000A816B906E4F54801880C991CEA85FB855E
:100BC000E80DF91D808191816EE977E00E94CB02EA
:100BD000892B39F0CC0CDD1CEE1CFF1C6894C0F88E
:100BE00010C0EA85FB85E80DF91D808191816EEECC
:100BF00072E00E94CB02892B29F1CC0CDD1CEE1C8B
:100C0000FF1CC501880F991FEA85FB85E80FF91FB6
:100C1000808191816EE571E00E94130322E0A20EB3
:100C2000B11C892B19F00E5F1F4FBECF83010150FD
:100C3000110915950795198708870031110524F4C6
:100C40001986188680E009C0CC82DD82EE82FF82A0
:100C50008CE090E09983888381E0DF91CF911F91B0
:100C60000F91FF90EF90DF90CF90BF90AF909F904B
:100C70008F907F906F900895AF92BF92CF92DF9246
:100C8000EF92FF920F931F93CF93DF93EB01EA85CF
:100C9000FB858281938168E273E20E94CB02892BFB
:100CA00011F480E07DC080914901843019F5EA8516
:100CB000FB85848195816AEC78E00E941303892B7F
:100CC000C9F0EA85FB858681978160E372E00E9426
:100CD000CB02892B79F0198618868FEF9FEFDC0104
:100CE0008C839D83AE83BF8383E090E09983888368
:100CF00081E056C080914901843498F2EA85FB85F1
:100D00008481958164E971E10E941303892B49F282
:100D100006E010E0C12CD12C7601EA85FB85E00FBE
:100D2000F11F8081918160E372E00E94CB02892BE8
:100D300009F4B7CF580182E0A80EB11CEA85FB8503
:100D4000EA0DFB1D808191816AE976E00E94130320
:100D5000892B39F0CC0CDD1CEE1CFF1C6894C0F80C
:100D600011C0EA85FB85EA0DFB1D8081918160E35E
:100D700072E00E941303892B09F493CFCC0CDD1C85
:100D8000EE1CFF1C0C5F1F4F0638110531F680E288
:100D900090E099878887CC82DD82EE82FF82A4CFA3
:100DA000DF91CF911F910F91FF90EF90DF90CF9047
:100DB000BF90AF9008958F929F92AF92BF92CF92C3
:100DC000DF92EF92FF920F931F93CF93DF9300D0A8
:100DD00000D0CDB7DEB74B01DB011A96ED91FC9147
:100DE0001B97828193816EEA7DE00E94CB02892B62
:100DF00011F480E093C0D4011A96ED91FC911B97F9
:100E00008481958166ED76E00E94CB02892B89F37F
:100E1000E6E0EE2EF12C20E030E040E050E0A12CA6
:100E2000B12CC12CD12CD4011A96ED91FC911B97B9
:100E3000EE0DFF1D8081918166EF71E029833A8379
:100E40004B835C830E94CB02892B99F287010E5F52
:100E50001F4FD4011A96ED91FC911B97E00FF11FE3
:100E6000808191816CED74E00E94130329813A81A5
:100E70004B815C81892B39F0B501C60101E00E94EC
:100E80000A1521601DC0D4011A96ED91FC911B97A3
:100E9000E00FF11F8081918160E971E029833A833D
:100EA0004B835C830E94130329813A814B815C81CF
:100EB000892B09F49ECFB501C60101E00E940A15F5
:100EC0005B016C01B4E0EB0EF11CE6ECEE16F104F4
:100ED00009F0A9CFD40114962C93149715963C933E
:100EE000159716964C93169717965C931797B5011E
:100EF000C60100E20E94251512962C9312971396B4
:100F00003C93139785E090E011969C938E9380E339
:100F100090E019969C938E93189781E00F900F9014
:100F20000F900F90DF91CF911F910F91FF90EF9055
:100F3000DF90CF90BF90AF909F908F9008958F9249
:100F40009F92AF92BF92CF92DF92EF92FF920F9358
:100F50001F93CF93DF937A016901DA01CD91DC9180
:100F6000FB0184859585C817D9070CF04AC0CE01CE
:100F7000880F991F0284F385E02DE80FF91FA080E8
:100F8000B180C170DD27F1E0CF27209719F484E606
:100F900090E002C08CE99FEF4801880E991EB401D1
:100FA000C5010E948502892B99F4800E911EB4011F
:100FB000C5010E948502892B71F4B401600F711F75
:100FC000C5010E948502892BF9F023E030E005C0BD
:100FD00021E030E002C022E030E0D6018D919C910A
:100FE000119701968217930744F0F601118210823F
:100FF000D7018D919C91119701968D939C93CE0171
:1010000005C081E090E002C08FEF9FEFDF91CF91AC
:101010001F910F91FF90EF90DF90CF90BF90AF9016
:101020009F908F9008954F925F926F927F928F92D0
:101030009F92AF92BF92CF92DF92EF92FF920F9367
:101040001F93CF93DF9300D000D0CDB7DEB76C01F4
:101050007B011C821B8281E090E09A8389838091CE
:1010600049018D3010F480E070C009E713E09E0163
:101070002D5F3F4FAE014F5F5F4FC6010E949F073C
:10108000892B89F79E012D5F3F4FAE014F5F5F4F68
:10109000B701C6010E949F07019729F79E012D5FA6
:1010A0003F4FAE014F5F5F4FB701C6010E949F07E0
:1010B000892BC9F6412C512C3201A12CB12C8091E5
:1010C000490190E029813A81281739079CF509E701
:1010D00013E09E012D5F3F4FAE014F5F5F4FB701A1
:1010E000C6010E949F074C019E012D5F3F4FAE013C
:1010F0004F5F5F4FB701C6010E949F0721E0821634
:10110000910451F4892B09F0AECF440C551C661C98
:10111000771C689440F80AC0892809F0A4CF019789
:1011200009F0A1CF440C551C661C771C8FEFA81A40
:10113000B80AC5CFF701B186A0864482558266827F
:10114000778281E090E0918380830F900F900F90E1
:101150000F90DF91CF911F910F91FF90EF90DF9053
:10116000CF90BF90AF909F908F907F906F905F9047
:101170004F9008952F923F924F925F926F927F927D
:101180008F929F92AF92BF92CF92DF92EF92FF9297
:101190000F931F93CF93DF9300D000D0CDB7DEB76E
:1011A0006C017B011C821B82DB011C968D919C9142
:1011B0001D971816190614F080E0BDC0DB011A96C1
:1011C000ED91FC911B9782E090E09A838983828164
:1011D00093816AE67AE00E94CB02892B69F3D701FA
:1011E0001A96ED91FC911B9789819A819C012F5F42
:1011F0003F4F3A832983880F991FE80FF91F808199
:10120000918169E773E00E941303892BA9F20CEB2B
:1012100011E09E012D5F3F4FAE014F5F5F4FB70161
:10122000C6010E949F07892B39F69E012D5F3F4F13
:10123000AE014F5F5F4FB701C6010E949F07019744
:1012400009F0BACF212C312C2101A12CB12C2981FC
:101250003A81F70184859585281739070CF060C01D
:101260000CEB11E09E012D5F3F4FAE014F5F5F4FD2
:10127000B701C6010E949F073C01B3E0AB16B10461
:1012800091F00CEB11E09E012D5F3F4FAE014F5FDF
:101290005F4FB701C6010E949F074C01E3E0AE1605
:1012A000B10409F510C00CEB11E09E012D5F3F4F1A
:1012B000AE014F5F5F4FB701C6010E949F076816DE
:1012C0007906F9F279CF0CEB11E09E012D5F3F4FCB
:1012D000AE014F5F5F4FB701C6010E949F0788169E
:1012E000990609F069CF6114710459F48A94892828
:1012F00009F062CF220C331C441C551C689420F862
:101300000BC06A94672809F057CF892809F054CF99
:10131000220C331C441C551CAFEFAA1ABA0A97CFF3
:10132000B186A086248235824682578282E090E090
:101330009183808381E00F900F900F900F90DF9149
:10134000CF911F910F91FF90EF90DF90CF90BF90C2
:10135000AF909F908F907F906F905F904F903F9055
:101360002F900895AF92BF92CF92DF92EF92FF92AB
:101370000F931F93CF93DF93EB01EA85FB85828167
:10138000938168E873E10E94CB02892B11F480E01D
:101390007DC080914901843019F5EA85FB858481FF
:1013A00095816AEC78E00E941303892BC9F0EA85E5
:1013B000FB858681978160E372E00E94CB02892BD6
:1013C00079F0198618868FEF9FEFDC018C839D835F
:1013D000AE83BF8387E090E09983888381E056C025
:1013E00080914901843498F2EA85FB858481958156
:1013F00068E873E10E941303892B49F206E010E0CC
:10140000C12CD12C7601EA85FB85E00FF11F80818C
:10141000918160E372E00E94CB02892B09F4B7CF7F
:10142000580182E0A80EB11CEA85FB85EA0DFB1D80
:101430008081918160E476E00E941303892B39F06A
:10144000CC0CDD1CEE1CFF1C6894C0F811C0EA85B2
:10145000FB85EA0DFB1D8081918160E372E00E94B3
:101460001303892B09F493CFCC0CDD1CEE1CFF1C5D
:101470000C5F1F4F0638110531F680E290E0998726
:101480008887CC82DD82EE82FF82A4CFDF91CF916C
:101490001F910F91FF90EF90DF90CF90BF90AF9092
:1014A00008958F929F92AF92BF92CF92DF92EF9268
:1014B000FF920F931F93CF93DF93EB01809149012C
:1014C0008A3108F47AC0EA85FB8580819181803277
:1014D000934050F4198618868FEF9FEFDC018C83C0
:1014E0009D83AE83BF836FC0828193816CEA7DE070
:1014F0000E94CB02892B09F460C0EA85FB858481B8
:1015000095816CEA7DE00E94CB02892B09F455C0DD
:1015100054E0A52EB12C03E010E0C12CD12C7601B3
:101520008091490190E0A816B906E4F5EA85FB85AB
:10153000C801880F991FE80FF91F8081918166EB20
:1015400073E00E941303892B61F14501880C991CFB
:10155000EA85FB85E80DF91D8081918160E679E0DF
:101560000E94CB02892B39F0CC0CDD1CEE1CFF1C39
:101570006894C0F810C0EA85FB85E80DF91D8081EC
:1015800091816CEB72E00E94CB02892BB1F0CC0C04
:10159000DD1CEE1CFF1C0E5F1F4F82E0A80EB11C6D
:1015A000BFCF850101501109159507951987088747
:1015B0000C30110524F41986188680E009C0CC820D
:1015C000DD82EE82FF828BE090E09983888381E068
:1015D000DF91CF911F910F91FF90EF90DF90CF900F
:1015E000BF90AF909F908F9008958F929F92AF92EF
:1015F000BF92CF92DF92EF92FF920F931F93CF9300
:10160000DF93EB01809149018A3108F471C0EA85CA
:10161000FB8580819181843F914060F41986188612
:101620008FEF9FEFDC018C839D83AE83BF838BE0C4
:1016300090E066C08281938160E679E00E94CB02EF
:10164000892B09F455C073E0A72EB12C02E010E0FD
:10165000C12CD12C76018091490190E0A816B906E1
:10166000E4F5EA85FB85C801880F991FE80FF91F8B
:101670008081918168E572E00E941303892B61F1FA
:101680004501880C991CEA85FB85E80DF91D8081D0
:10169000918160EB74E00E94CB02892B39F0CC0C75
:1016A000DD1CEE1CFF1C6894C0F810C0EA85FB85A9
:1016B000E80DF91D8081918168E572E00E94CB02FE
:1016C000892BB1F0CC0CDD1CEE1CFF1C0E5F1F4FF4
:1016D00082E0A80EB11CBFCF8501015011091595FC
:1016E0000795198708870C30110524F41986188688
:1016F00080E009C0CC82DD82EE82FF8284E090E04F
:101700009983888381E0DF91CF911F910F91FF90A2
:10171000EF90DF90CF90BF90AF909F908F90089503
:10172000AF92BF92CF92DF92EF92FF920F931F93EF
:10173000CF93DF93EB0180914901863410F480E070
:1017400086C0EA85FB85828193816EEE72E00E94FD
:10175000CB02892BA1F3EA85FB85848195816EEE0E
:1017600072E00E941303892B51F3EA85FB85868181
:10177000978162E27BE00E94CB02892B01F3EA852C
:10178000FB858085918562E27BE00E941303892BB3
:10179000B1F25CE0A52EB12C05E010E0C12CD12CFB
:1017A0007601EA85FB85C801880F991FE80FF91FAC
:1017B000808191816EEE72E00E94CB02892B09F448
:1017C000BECFEA85FB85EA0DFB1D8081918166E62F
:1017D00078E00E941303892B39F0CC0CDD1CEE1C41
:1017E000FF1C6894C0F811C0EA85FB85EA0DFB1D5B
:1017F000808191816EEE72E00E941303892B09F4BF
:101800009ECFCC0CDD1CEE1CFF1C0E5F1F4F84E036
:10181000A80EB11C0534110521F6EA85FB85E657B3
:10182000FF4F808191816EEE72E00E94CB02892B86
:1018300009F485CF80E290E099878887CC82DD82A9
:10184000EE82FF8288E090E09983888381E0DF91D7
:10185000CF911F910F91FF90EF90DF90CF90BF90AD
:10186000AF9008951F920F920FB60F9211242F93ED
:101870003F934F935F936F937F938F939F93AF9318
:10188000BF93EF93FF938091180287FF05C01092DA
:101890008500109284001AC020911802332727FD7A
:1018A00030958091170290E0281739077CF48091D9
:1018B0001802992787FD9095FC01EE0FFF1FE80F96
:1018C000F91FE75EFD4F808186FD15C080911802EB
:1018D0008F5F8093180220911802332727FD3095DF
:1018E0008091170290E028173907BCF48091180204
:1018F0008C305CF112C080911802992787FD909579
:10190000FC01EE0FFF1FE80FF91FE75EFD4F80811E
:1019100060E08F730E94870FD9CF809184009091EF
:101920008500049680349C4918F480E49CE905C045
:101930008091840090918500049690938900809313
:1019400088008FEF8093180238C020918400309176
:10195000850080911802992787FD9095FC01EE0F74
:10196000FF1FE80FF91FE75EFD4F81819281820F13
:10197000931F909389008093880080911802992783
:1019800087FD9095FC01EE0FFF1FE80FF91FE75E42
:10199000FD4F808186FF11C080911802992787FD35
:1019A0009095FC01EE0FFF1FE80FF91FE75EFD4F5A
:1019B000808161E08F730E94870FFF91EF91BF914B
:1019C000AF919F918F917F916F915F914F913F91D7
:1019D0002F910F900FBE0F901F90189526E040E8B2
:1019E00055E260E070E088E592E00E94C9108EE464
:1019F00092E00E943A018DE392E00E941B0D22E3E7
:101A000040E050E067E370E08DE392E00C94930DCA
:101A10006EE372E08EE492E00E940702892B21F0CF
:101A20008EE492E00C94510108956BE070E08EE436
:101A300092E00C9435018F929F92AF92BF92CF9219
:101A4000DF92EF92FF920F931F93CF93DF938EE07D
:101A5000882E81E0982E61E0F40180810E944E0F73
:101A600098E0A92E91E0B92E61E0F50180810E94F5
:101A70004E0F2CE0C22E21E0D22E61E0F6018081D3
:101A80000E944E0F3AE0E32E31E0F32E61E0F701C1
:101A900080810E944E0F06E011E061E0F801808134
:101AA0000E944E0FC4E0D1E061E088810E944E0F99
:101AB00060E0F40180810E94870F60E0F501808181
:101AC0000E94870F60E0F60180810E94870F61E02D
:101AD000F70180810E94870F60E0F80180810E94F9
:101AE000870F61E08881DF91CF911F910F91FF9067
:101AF000EF90DF90CF90BF90AF909F908F900C941D
:101B0000870F60E171E088E592E00E94221260E0B8
:101B100070E080910E010E94C60E60E070E080913E
:101B200008010C94C60EFF920F931F93CF93DF937F
:101B30008C01EB01F22E452B89F460E080910C01C1
:101B40000E94870F61E080910A010E94870F61E087
:101B5000809106010E94870F60E010C061E08091D3
:101B60000C010E94870F60E080910A010E94870F9C
:101B700060E0809106010E94870F61E0809104017E
:101B80000E94870F4AE050E06FEF88E592E00E94E4
:101B90009A124AE050E06FEF88E592E00E949A12B4
:101BA0002FEF2C9FC0012D9F900D112464E670E053
:101BB0000E94C914EB0180910E010E94C60EBE0165
:101BC000809108010E94C60E84E6F89EB00111249F
:101BD000882777FD8095982F0E94630EC801DF91BA
:101BE000CF911F910F91FF900C94810D1F920F9236
:101BF0000FB60F9211242F933F938F939F93AF9320
:101C0000BF938091500290915102A0915202B091E5
:101C1000530230914F0223E0230F2D3720F4019619
:101C2000A11DB11D05C026E8230F0296A11DB11DFF
:101C300020934F028093500290935102A09352023E
:101C4000B09353028091540290915502A091560294
:101C5000B09157020196A11DB11D8093540290933B
:101C60005502A0935602B0935702BF91AF919F9136
:101C70008F913F912F910F900FBE0F901F9018954D
:101C80003FB7F8948091540290915502A09156026A
:101C9000B091570226B5A89B05C02F3F19F00196B9
:101CA000A11DB11D3FBF6627782F892F9A2F620F84
:101CB000711D811D911D42E0660F771F881F991FBE
:101CC0004A95D1F70895CF92DF92EF92FF92CF938A
:101CD000DF936B017C010E94400EEB01C114D10423
:101CE000E104F10489F00E94A1120E94400E6C1BD5
:101CF0007D0B683E734090F381E0C81AD108E1087B
:101D0000F108C851DC4FEACFDF91CF91FF90EF90FF
:101D1000DF90CF900895789484B5826084BD84B5B7
:101D2000816084BD85B5826085BD85B5816085BDD6
:101D3000EEE6F0E0808181608083E1E8F0E01082EF
:101D4000808182608083808181608083E0E8F0E030
:101D5000808181608083E1EBF0E08081846080831A
:101D6000E0EBF0E0808181608083EAE7F0E0808151
:101D700084608083808182608083808181608083B1
:101D80008081806880831092C10008951F93CF9353
:101D9000DF93182FEB0161E00E944E0F209711F4A2
:101DA00060E004C0CF3FD10539F461E0812FDF91BD
:101DB000CF911F910C94870FE12FF0E0E859FF4F6E
:101DC000E491E330F9F048F4E130B9F0E230A1F504
:101DD00084B5806284BDC8BD34C0E730E9F0E83026
:101DE00019F1E43049F58091800080628093800091
:101DF000D0938B00C0938A0024C084B5806884BDD2
:101E0000C7BD1FC080918000806880938000D09300
:101E10008900C093880015C08091B00080688093CD
:101E2000B000C093B3000DC08091B0008062809379
:101E3000B000C093B40005C0C038D1050CF0B5CFD8
:101E4000AFCFDF91CF911F910895833081F028F4B7
:101E5000813099F08230A1F008958730A9F0883060
:101E6000B9F08430D1F4809180008F7D03C08091DF
:101E700080008F7780938000089584B58F7702C0AB
:101E800084B58F7D84BD08958091B0008F7703C0A5
:101E90008091B0008F7D8093B0000895CF93DF9341
:101EA00090E0FC01E458FF4F2491FC01E057FF4F04
:101EB0008491882349F190E0880F991FFC01E85430
:101EC000FF4FA591B49182559F4FFC01C591D491CC
:101ED0009FB7611108C0F8948C91209582238C9350
:101EE000888182230AC0623051F4F8948C91322F99
:101EF000309583238C938881822B888304C0F89447
:101F00008C91822B8C939FBFDF91CF9108950F937B
:101F10001F93CF93DF931F92CDB7DEB7282F30E00A
:101F2000F901E859FF4F8491F901E458FF4F1491EA
:101F3000F901E057FF4F04910023C9F0882321F0F5
:101F400069830E94250F6981E02FF0E0EE0FFF1FEB
:101F5000E255FF4FA591B4919FB7F8948C91611110
:101F600003C01095812301C0812B8C939FBF0F90DC
:101F7000DF91CF911F910F910895CF93DF93282F79
:101F800030E0F901E859FF4F8491F901E458FF4F1F
:101F9000D491F901E057FF4FC491CC2391F0811106
:101FA0000E94250FEC2FF0E0EE0FFF1FEC55FF4FC6
:101FB000A591B4912C912D2381E090E021F480E053
:101FC00002C080E090E0DF91CF910895FC01818D07
:101FD000228D90E0805C9F4F821B91098F7399271F
:101FE0000895FC01918D828D981731F0828DE80F54
:101FF000F11D858D90E008958FEF9FEF0895FC010E
:10200000918D828D981761F0828DDF01A80FB11D2F
:102010005D968C91928D9F5F9F73928F90E0089553
:102020008FEF9FEF089583E891E1892B49F080E0DD
:1020300090E0892B29F00E94831181110C940000FB
:102040000895FC01848DDF01A80FB11DA35ABF4F75
:102050002C91848D90E001968F739927848FA689A7
:10206000B7892C93A089B1898C9180648C93938DCE
:10207000848D981306C00288F389E02D80818F7DBE
:1020800080830895CF93DF93EC01888D8823C9F076
:10209000EA89FB89808185FD05C0A889B9898C9171
:1020A00086FD0FC00FB607FCF5CF808185FFF2CF0C
:1020B000A889B9898C9185FFEDCFCE010E942110AE
:1020C000E7CFDF91CF910895CF92DF92FF920F93E8
:1020D0001F93CF93DF931F92CDB7DEB76C0181E0E2
:1020E000D60158968C9358975B969C915B975C961B
:1020F0008C915C97981307C05096ED91FC91519785
:10210000808185FD2EC0F601038D10E00F5F1F4F0B
:102110000F731127F02EF601848DF81211C00FB63F
:1021200007FCF9CFD6015096ED91FC915197808133
:1021300085FFF1CFC60169830E9421106981EBCF31
:10214000838DE80FF11DE35AFF4F6083D6015B9644
:102150000C935B975296ED91FC915397808180622E
:102160000CC0D6015696ED91FC915797608350961E
:10217000ED91FC91519780818064808381E090E0B3
:102180000F90DF91CF911F910F91FF90DF90CF9033
:102190000895BF92CF92DF92EF92FF92CF93DF9399
:1021A000EC016A017B01B22EE889F98982E0808323
:1021B000411581EE580761057105A1F060E079E0F5
:1021C0008DE390E0A70196010E94DD1421503109B2
:1021D000410951095695479537952795211580E175
:1021E000380798F0E889F989108260E874E88EE190
:1021F00090E0A70196010E94DD14215031094109A8
:1022000051095695479537952795EC85FD8530837F
:10221000EE85FF852083188EEC89FD89B082EA89DE
:10222000FB89808180618083EA89FB898081886065
:102230008083EA89FB89808180688083EA89FB89C1
:1022400080818F7D8083DF91CF91FF90EF90DF9031
:10225000CF90BF9008951F920F920FB60F92112446
:102260002F938F939F93EF93FF93E0916802F091E8
:1022700069028081E0916E02F0916F0282FD12C0CE
:102280009081809171028F5F8F732091720282170B
:1022900051F0E0917102F0E0E85AFD4F958F809384
:1022A000710201C08081FF91EF919F918F912F91D9
:1022B0000F900FBE0F901F9018951F920F920FB6A0
:1022C0000F9211242F933F934F935F936F937F93BC
:1022D0008F939F93AF93BF93EF93FF9388E592E023
:1022E0000E942110FF91EF91BF91AF919F918F912B
:1022F0007F916F915F914F913F912F910F900FBE02
:102300000F901F90189588E592E00E94E60F21E05B
:10231000892B09F420E0822F089510925B0210921D
:102320005A0288EE93E0A0E0B0E080935C029093C4
:102330005D02A0935E02B0935F0289E291E0909308
:1023400059028093580285EC90E090936502809347
:10235000640284EC90E0909367028093660280ECC4
:1023600090E0909369028093680281EC90E09093F2
:102370006B0280936A0282EC90E090936D028093EE
:102380006C0286EC90E090936F0280936E02109244
:1023900071021092720210927302109274020895E8
:1023A00008950E948B0E0E94D0110E94EE0CC3E192
:1023B000D0E10E94080D2097E1F30E941310F9CF9D
:1023C000CF92DF92EF92FF920F931F93CF93DF9301
:1023D0007C016A01EB0100E010E00C151D0571F0B5
:1023E0006991D701ED91FC910190F081E02DC70139
:1023F0000995892B19F00F5F1F4FEFCFC801DF91AF
:10240000CF911F910F91FF90EF90DF90CF900895A3
:102410006115710581F0DB010D900020E9F7AD0138
:1024200041505109461B570BDC01ED91FC91028094
:10243000F381E02D099480E090E0089565E371E078
:102440000C9408120F931F93CF93DF93EC010E941B
:1024500008128C01CE010E941E12800F911FDF9185
:10246000CF911F910F9108958F929F92AF92BF923B
:10247000CF92DF92EF92FF920F931F93CF93DF9350
:10248000CDB7DEB7A1970FB6F894DEBF0FBECDBFB4
:102490007C01C42EE52FCB01D22E19A221E02D15EF
:1024A00010F02AE0D22E8E010F5D1F4F8D2C912C43
:1024B000A12CB12C6C2D7E2FA50194010E94DD145E
:1024C0008C2DD29E80191124015011098A3014F4E8
:1024D000805D01C0895CF8018083211531054105CB
:1024E000510521F0C22EE32FCA01E4CFB801C70184
:1024F0000E940812A1960FB6F894DEBF0FBECDBFA2
:10250000DF91CF911F910F91FF90EF90DF90CF90CF
:10251000BF90AF909F908F9008952115310541F4A1
:10252000DC01ED91FC910190F081E02D642F099484
:102530000C9434129A01462F50E060E070E00C9445
:102540008D1208955058BB27AA270ED075C166D1A9
:1025500030F06BD120F031F49F3F11F41EF45BC1D9
:102560000EF4E095E7FB51C1E92F77D180F3BA175C
:10257000620773078407950718F071F49EF58FC101
:102580000EF4E0950B2EBA2FA02D0B01B90190018E
:102590000C01CA01A0011124FF27591B99F0593FD2
:1025A00050F4503E68F11A16F040A22F232F342F1A
:1025B0004427585FF3CF469537952795A795F04068
:1025C0005395C9F77EF41F16BA0B620B730B840B7D
:1025D000BAF09150A1F0FF0FBB1F661F771F881F35
:1025E000C2F70EC0BA0F621F731F841F48F487958D
:1025F00077956795B795F7959E3F08F0B3CF93957C
:10260000880F08F09927EE0F979587950895D9D0F0
:1026100008F481E008950CD00FC107D140F0FED03E
:1026200030F021F45F3F19F0F0C0511139C1F3C00F
:1026300014D198F39923C9F35523B1F3951B550B86
:10264000BB27AA2762177307840738F09F5F5F4F85
:10265000220F331F441FAA1FA9F333D00E2E3AF0C6
:10266000E0E830D091505040E695001CCAF729D0E0
:10267000FE2F27D0660F771F881FBB1F261737072F
:102680004807AB07B0E809F0BB0B802DBF01FF275F
:1026900093585F4F2AF09E3F510568F0B6C000C1C5
:1026A0005F3FECF3983EDCF3869577956795B79599
:1026B000F7959F5FC9F7880F911D9695879597F9B4
:1026C0000895E1E0660F771F881FBB1F621773072D
:1026D0008407BA0720F0621B730B840BBA0BEE1F42
:1026E00088F7E095089504D06894B111D9C0089591
:1026F000BCD088F09F5790F0B92F9927B751A0F020
:10270000D1F0660F771F881F991F1AF0BA95C9F785
:1027100012C0B13081F0C3D0B1E00895C0C0672FBE
:10272000782F8827B85F39F0B93FCCF38695779535
:102730006795B395D9F73EF490958095709561951E
:102740007F4F8F4F9F4F0895E89409C097FB3EF449
:1027500090958095709561957F4F8F4F9F4F9923EE
:10276000A9F0F92F96E9BB279395F695879577956C
:102770006795B795F111F8CFFAF4BB0F11F460FF2C
:102780001BC06F5F7F4F8F4F9F4F16C0882311F084
:1027900096E911C0772321F09EE8872F762F05C098
:1027A000662371F096E8862F70E060E02AF09A9533
:1027B000660F771F881FDAF7880F9695879597F928
:1027C0000895990F0008550FAA0BE0E8FEEF1616C2
:1027D0001706E807F907C0F012161306E407F50715
:1027E00098F0621B730B840B950B39F40A2661F089
:1027F000232B242B252B21F408950A2609F4A1402C
:10280000A6958FEF811D811D089597F99F6780E838
:1028100070E060E008959FEF80EC089500240A9432
:102820001616170618060906089500240A941216AB
:102830001306140605060895092E0394000C11F4DE
:10284000882352F0BB0F40F4BF2B11F460FF04C08B
:102850006F5F7F4F8F4F9F4F089557FD9058440FE4
:10286000551F59F05F3F71F04795880F97FB991FEF
:1028700061F09F3F79F087950895121613061406AC
:10288000551FF2CF4695F1DF08C016161706180639
:10289000991FF1CF86957105610508940895E89414
:1028A000BB2766277727CB0197F908950BD0C4CFB4
:1028B000B5DF28F0BADF18F0952309F0A6CFABCF2B
:1028C0001124EECFCADFA0F3959FD1F3950F50E00E
:1028D000551F629FF001729FBB27F00DB11D639FD2
:1028E000AA27F00DB11DAA1F649F6627B00DA11D78
:1028F000661F829F2227B00DA11D621F739FB00D1E
:10290000A11D621F839FA00D611D221F749F33278D
:10291000A00D611D231F849F600D211D822F762F26
:102920006A2F11249F5750408AF0E1F088234AF023
:10293000EE0FFF1FBB1F661F771F881F915050406F
:10294000A9F79E3F510570F060CFAACF5F3FECF32F
:10295000983EDCF3869577956795B795F795E7955B
:102960009F5FC1F7FE2B880F911D9695879597F96C
:102970000895DB018F939F930E94FF14BF91AF9145
:10298000A29F800D911DA39F900DB29F900D1124C9
:10299000089597FB072E16F4009407D077FD09D011
:1029A0000E94411507FC05D03EF4909581959F4FFC
:1029B0000895709561957F4F0895A1E21A2EAA1B84
:1029C000BB1BFD010DC0AA1FBB1FEE1FFF1FA217DF
:1029D000B307E407F50720F0A21BB30BE40BF50BDC
:1029E000661F771F881F991F1A9469F76095709565
:1029F000809590959B01AC01BD01CF0108950E9487
:102A00005B15A59F900DB49F900DA49F800D911D07
:102A1000112408950F93083090F0982F872F762F68
:102A2000652F542F432F322F22270850F4CF220F27
:102A3000331F441F551F661F771F881F991F0A9554
:102A4000B2F70F91089597FB10F8169400080F93B2
:102A5000083098F00850232F342F452F562F672F1A
:102A6000782F892F902DF4CF05949795879577959A
:102A7000679557954795379527950A95AAF70F912A
:102A80000895AA1BBB1B51E107C0AA1FBB1FA617B5
:102A9000B70710F0A61BB70B881F991F5A95A9F707
:102AA00080959095BC01CD010895EE0FFF1F059014
:102AB000F491E02D0994A29FB001B39FC001A39FA0
:102AC000700D811D1124911DB29F700D811D112467
:082AD000911D0895F894FFCF59
:102AD80001000000070004000600030002000500D2
:102AE80053746F7000466F72776172640052657636
:102AF8006572736500000000006410E011E60FFFC6
:102B08000FF10F42100D0A006E616E00696E6600CB
:062B18006F7666002E003E
:00000001FF
